{
  "contractName": "SmartContract",
  "abi": [
    {
      "inputs": [],
      "stateMutability": "nonpayable",
      "type": "constructor"
    },
    {
      "inputs": [],
      "name": "myNumber",
      "outputs": [
        {
          "internalType": "uint256",
          "name": "",
          "type": "uint256"
        }
      ],
      "stateMutability": "view",
      "type": "function",
      "constant": true
    },
    {
      "inputs": [
        {
          "internalType": "uint256",
          "name": "_num",
          "type": "uint256"
        }
      ],
      "name": "setNumber",
      "outputs": [],
      "stateMutability": "nonpayable",
      "type": "function"
    },
    {
      "inputs": [
        {
          "internalType": "uint256",
          "name": "_num",
          "type": "uint256"
        }
      ],
      "name": "assertExample",
      "outputs": [
        {
          "internalType": "bool",
          "name": "",
          "type": "bool"
        }
      ],
      "stateMutability": "view",
      "type": "function",
      "constant": true
    },
    {
      "inputs": [
        {
          "internalType": "uint256",
          "name": "_num",
          "type": "uint256"
        }
      ],
      "name": "revertExample",
      "outputs": [],
      "stateMutability": "pure",
      "type": "function",
      "constant": true
    }
  ],
  "bytecode": "0x608060405234801561001057600080fd5b50600080819055506103a1806100276000396000f3fe608060405234801561001057600080fd5b506004361061004c5760003560e01c806323fd0e40146100515780633fb5c1cb1461006f578063533cb9741461008b578063eb11813b146100a7575b600080fd5b6100596100d7565b60405161006691906101a4565b60405180910390f35b610089600480360381019061008491906101f0565b6100dd565b005b6100a560048036038101906100a091906101f0565b61012a565b005b6100c160048036038101906100bc91906101f0565b610170565b6040516100ce9190610238565b60405180910390f35b60005481565b60008111610120576040517f08c379a0000000000000000000000000000000000000000000000000000000008152600401610117906102b0565b60405180910390fd5b8060008190555050565b6000810361016d576040517f08c379a00000000000000000000000000000000000000000000000000000000081526004016101649061031c565b60405180910390fd5b50565b60008082036101825761018161033c565b5b60019050919050565b6000819050919050565b61019e8161018b565b82525050565b60006020820190506101b96000830184610195565b92915050565b600080fd5b6101cd8161018b565b81146101d857600080fd5b50565b6000813590506101ea816101c4565b92915050565b600060208284031215610206576102056101bf565b5b6000610214848285016101db565b91505092915050565b60008115159050919050565b6102328161021d565b82525050565b600060208201905061024d6000830184610229565b92915050565b600082825260208201905092915050565b7f4e756d626572206d7573742062652067726561746572207468616e207a65726f600082015250565b600061029a602083610253565b91506102a582610264565b602082019050919050565b600060208201905081810360008301526102c98161028d565b9050919050565b7f4e756d6265722063616e6e6f74206265207a65726f0000000000000000000000600082015250565b6000610306601583610253565b9150610311826102d0565b602082019050919050565b60006020820190508181036000830152610335816102f9565b9050919050565b7f4e487b7100000000000000000000000000000000000000000000000000000000600052600160045260246000fdfea2646970667358221220171f4b98892673a569a26db1749adc92f46096e3e0d7a1bfc675f039d476188964736f6c63430008110033",
  "immutableReferences": {},
  "source": "// SPDX-License-Identifier: MIT\npragma solidity ^0.8.0;\n\ncontract SmartContract {\n    uint public myNumber;\n\n    constructor() {\n        myNumber = 0;\n    }\n\n    function setNumber(uint _num) public {\n        require(_num > 0, \"Number must be greater than zero\");\n        myNumber = _num;\n    }\n\n    function assertExample(uint _num) public view returns (bool) {\n        assert(_num != 0);\n        return true;\n    }\n\n    function revertExample(uint _num) public pure {\n        if (_num == 0) {\n            revert(\"Number cannot be zero\");\n        }\n    }\n}\n",
  "sourcePath": "/workspace/solidity_starter/contracts/SmartContract.sol",
  "compiler": {
    "name": "solc",
    "version": "0.8.17+commit.8df45f5f.Emscripten.clang"
  },
  "schemaVersion": "3.4.16",
  "updatedAt": "2024-07-09T07:24:17.383Z",
  "networkType": "ethereum",
  "devdoc": {
    "kind": "dev",
    "methods": {},
    "version": 1
  },
  "userdoc": {
    "kind": "user",
    "methods": {},
    "version": 1
  }
}